:100000000C9434000C9451000C9451000C94510049
:100010000C9451000C9451000C9451000C9451001C
:100020000C9451000C9451000C9451000C9451000C
:100030000C9451000C9451000C9451000C945100FC
:100040000C9451000C9451000C9451000C945100EC
:100050000C9451000C9451000C9451000C945100DC
:100060000C9451000C94510011241FBECFEFD8E026
:10007000DEBFCDBF11E0A0E0B1E0E0EDF4E002C0F2
:1000800005900D92AE36B107D9F721E0AEE6B1E0AA
:1000900001C01D92A037B207E1F70E94BB010C948A
:1000A00066020C94000090E002C0959587956A95D1
:1000B000E2F78170089521E030E001C0220F6A95D7
:1000C000EAF7822B089521E030E001C0220F6A9503
:1000D000EAF7209582230895089587E690E00E942C
:1000E00035010E94530180E091E00E9447010E9487
:1000F000530183E191E00C944701FF920F931F930A
:10010000CF93DF93CDB7DEB7CF5FD1090FB6F894A9
:10011000DEBF0FBECDBF8CE291E00E9447016FEFC2
:10012000CE0101960E9460016DE271E0CE01019660
:100130000E94DE018C016FE271E0CE0101960E9407
:10014000E301892B89F485E391E00E944701C150C6
:10015000DF4F0FB6F894DEBF0FBECDBFDF91CF915A
:100160001F910F91FF90089560E471E0CE01019618
:100170000E94E301892B19F40E945301CCCF65E45E
:1001800071E0C8010E94E301892B69F46DE271E01E
:1001900080E090E00E94DE010E94470189E291E048
:1001A0000E944701B8CF6AE471E0C8010E94E301F0
:1001B000892B89F5F999FECF6DE271E080E090E03E
:1001C0000E94DE010E94C0018C016DE271E080E0BE
:1001D00090E00E94DE010E94C001F82E1127682FD6
:1001E000C8010E94580280E591E00E94470140E169
:1001F00060E070E08F2D90E00E9413020E944701A2
:1002000089E591E00E94470140E160E070E0C801AB
:100210000E941302C1CF60E671E0C8010E94E301B1
:10022000892B01F5F999FECF6DE271E080E090E055
:100230000E94DE018C010E94470189E291E00E9448
:100240004701C8010E94C00190E00E945002182F8F
:1002500086E591E00E94470140E160E070E0812F77
:1002600090E0D6CFCE01019697CF9093C5008093B2
:10027000C40088E18093C1008EE08093C20008959D
:100280009091C00095FFFCCF8093C6000895CF9356
:10029000DF93EC01899118161CF0DF91CF9108953E
:1002A0000E944001F7CF85E691E00C944701FC01E4
:1002B0008091C00087FFFCCF8091C60080830895A5
:1002C000DF92EF92FF920F931F93CF93DF930F92E2
:1002D000CDB7DEB77C01062F898110E08830E1F0D0
:1002E000CE0101960E945701D9808D2D0E944001B8
:1002F000812F1F5FF701E80FF11DD082101770F4F6
:1003000089818D3059F0883059F7115080E20E9470
:10031000400188E00E944001101790F08AE00E949E
:100320004001F701E10FF11D10820F90DF91CF9195
:100330001F910F91FF90EF90DF9008951111E5CF7D
:100340008981883069F6FACFCF93982F82958F7084
:10035000C92FCF70903A68F490E3890F90E3CA30C8
:1003600008F097E3C90F0E9440018C2FCF910C94A5
:10037000400197E3F2CF0E946D000E947D00FFCF05
:10038000FC0188279927E89421912032E9F329304C
:1003900010F02E30C8F32B3241F02D3239F468942E
:1003A00004C00E941E02820F911D219120532A3009
:1003B000C0F31EF4909581959F4F08954EE651E04D
:1003C0000E94EC010895FB01DC018D9101908019E0
:1003D0000110D9F3990B0895FA01A191B08100970A
:1003E00019F41097E1F0CD01DC01CD010D90002052
:1003F00011F4C00113C0FB012191222319F0201533
:10040000D9F7F3CFFB012191201519F41E92119613
:1004100006C02223C1F70D900020A1F7D001FA01F8
:10042000A193B0830895BB274A3031F4992322F475
:10043000BDE2909581959F4F0C9427027AE0979F9B
:10044000902D879F802D910D11240895BB27FB01CE
:100450005527AA27880F991FAA1FA41710F0A41BBD
:1004600083955051B9F7A05DAA3308F0A95DA19317
:10047000009779F7B111B1931192CB010C9440021E
:10048000DC01FC01672F71917723E1F7329704C0FB
:100490007C916D9370836291AE17BF07C8F3089586
:1004A000F999FECF92BD81BDF89A992780B508953C
:1004B000262FF999FECF1FBA92BD81BD20BD0FB680
:1004C000F894FA9AF99A0FBE01960895F894FFCF1E
:1004D0005541525420696E697469616C697A65642A
:1004E0000D0A0057656C636F6D6520746F204D6158
:1004F0006C6C617264333238210D0A003E20007149
:100500007569740D00476F6F64627965210D0A008B
:10051000636C720D006563686F00777269746500C3
:1005200057726F74652030780020746F2030780027
:0E05300072656164001B5B324A1B5B48000071
:00000001FF
